{
  "contractName": "Voting",
  "abi": [
    {
      "inputs": [],
      "stateMutability": "nonpayable",
      "type": "constructor"
    },
    {
      "anonymous": false,
      "inputs": [
        {
          "indexed": true,
          "internalType": "uint256",
          "name": "candidateId",
          "type": "uint256"
        },
        {
          "indexed": false,
          "internalType": "string",
          "name": "name",
          "type": "string"
        }
      ],
      "name": "candidateAdded",
      "type": "event"
    },
    {
      "anonymous": false,
      "inputs": [
        {
          "indexed": true,
          "internalType": "uint256",
          "name": "candidateId",
          "type": "uint256"
        }
      ],
      "name": "votedEvent",
      "type": "event"
    },
    {
      "inputs": [
        {
          "internalType": "uint256",
          "name": "",
          "type": "uint256"
        }
      ],
      "name": "candidates",
      "outputs": [
        {
          "internalType": "uint256",
          "name": "id",
          "type": "uint256"
        },
        {
          "internalType": "string",
          "name": "name",
          "type": "string"
        },
        {
          "internalType": "uint256",
          "name": "voteCount",
          "type": "uint256"
        }
      ],
      "stateMutability": "view",
      "type": "function",
      "constant": true
    },
    {
      "inputs": [],
      "name": "candidatesCount",
      "outputs": [
        {
          "internalType": "uint256",
          "name": "",
          "type": "uint256"
        }
      ],
      "stateMutability": "view",
      "type": "function",
      "constant": true
    },
    {
      "inputs": [],
      "name": "owner",
      "outputs": [
        {
          "internalType": "address",
          "name": "",
          "type": "address"
        }
      ],
      "stateMutability": "view",
      "type": "function",
      "constant": true
    },
    {
      "inputs": [
        {
          "internalType": "address",
          "name": "",
          "type": "address"
        }
      ],
      "name": "voters",
      "outputs": [
        {
          "internalType": "bool",
          "name": "",
          "type": "bool"
        }
      ],
      "stateMutability": "view",
      "type": "function",
      "constant": true
    },
    {
      "inputs": [
        {
          "internalType": "string",
          "name": "_name",
          "type": "string"
        }
      ],
      "name": "addCandidate",
      "outputs": [],
      "stateMutability": "nonpayable",
      "type": "function"
    },
    {
      "inputs": [
        {
          "internalType": "uint256",
          "name": "_candidateId",
          "type": "uint256"
        }
      ],
      "name": "vote",
      "outputs": [],
      "stateMutability": "nonpayable",
      "type": "function"
    }
  ],
  "bytecode": "0x60806040523480156200001157600080fd5b50336000806101000a81548173ffffffffffffffffffffffffffffffffffffffff021916908373ffffffffffffffffffffffffffffffffffffffff160217905550620000986040518060400160405280600481526020017f52616d61000000000000000000000000000000000000000000000000000000008152506200012a60201b60201c565b620000de6040518060400160405280600481526020017f4e69636b000000000000000000000000000000000000000000000000000000008152506200012a60201b60201c565b620001246040518060400160405280600481526020017f4a6f7365000000000000000000000000000000000000000000000000000000008152506200012a60201b60201c565b62000545565b60008054906101000a900473ffffffffffffffffffffffffffffffffffffffff1673ffffffffffffffffffffffffffffffffffffffff163373ffffffffffffffffffffffffffffffffffffffff1614620001bb576040517f08c379a0000000000000000000000000000000000000000000000000000000008152600401620001b290620003d4565b60405180910390fd5b60036000815480929190620001d09062000488565b9190505550604051806060016040528060035481526020018281526020016000815250600160006003548152602001908152602001600020600082015181600001556020820151816001019080519060200190620002309291906200027d565b50604082015181600201559050506003547f4e533c53f778a27389df73e6c2093f620b89f32beda6edc0a994be6ab49e7cce82604051620002729190620003b0565b60405180910390a250565b8280546200028b9062000452565b90600052602060002090601f016020900481019282620002af5760008555620002fb565b82601f10620002ca57805160ff1916838001178555620002fb565b82800160010185558215620002fb579182015b82811115620002fa578251825591602001919060010190620002dd565b5b5090506200030a91906200030e565b5090565b5b80821115620003295760008160009055506001016200030f565b5090565b60006200033a82620003f6565b62000346818562000401565b9350620003588185602086016200041c565b620003638162000534565b840191505092915050565b60006200037d601e8362000401565b91507f4f6e6c79206f776e65722063616e206164642063616e646964617465732e00006000830152602082019050919050565b60006020820190508181036000830152620003cc81846200032d565b905092915050565b60006020820190508181036000830152620003ef816200036e565b9050919050565b600081519050919050565b600082825260208201905092915050565b6000819050919050565b60005b838110156200043c5780820151818401526020810190506200041f565b838111156200044c576000848401525b50505050565b600060028204905060018216806200046b57607f821691505b6020821081141562000482576200048162000505565b5b50919050565b6000620004958262000412565b91507fffffffffffffffffffffffffffffffffffffffffffffffffffffffffffffffff821415620004cb57620004ca620004d6565b5b600182019050919050565b7f4e487b7100000000000000000000000000000000000000000000000000000000600052601160045260246000fd5b7f4e487b7100000000000000000000000000000000000000000000000000000000600052602260045260246000fd5b6000601f19601f8301169050919050565b610b9880620005556000396000f3fe608060405234801561001057600080fd5b50600436106100625760003560e01c80630121b93f146100675780632d35a8a2146100835780633477ee2e146100a1578063462e91ec146100d35780638da5cb5b146100ef578063a3ec138d1461010d575b600080fd5b610081600480360381019061007c91906106b4565b61013d565b005b61008b6102cf565b60405161009891906108bb565b60405180910390f35b6100bb60048036038101906100b691906106b4565b6102d5565b6040516100ca939291906108d6565b60405180910390f35b6100ed60048036038101906100e89190610673565b610387565b005b6100f76104d1565b6040516101049190610803565b60405180910390f35b6101276004803603810190610122919061064a565b6104f5565b604051610134919061081e565b60405180910390f35b600260003373ffffffffffffffffffffffffffffffffffffffff1673ffffffffffffffffffffffffffffffffffffffff16815260200190815260200160002060009054906101000a900460ff16156101ca576040517f08c379a00000000000000000000000000000000000000000000000000000000081526004016101c19061087b565b60405180910390fd5b6000811180156101dc57506003548111155b61021b576040517f08c379a00000000000000000000000000000000000000000000000000000000081526004016102129061089b565b60405180910390fd5b6001600260003373ffffffffffffffffffffffffffffffffffffffff1673ffffffffffffffffffffffffffffffffffffffff16815260200190815260200160002060006101000a81548160ff02191690831515021790555060016000828152602001908152602001600020600201600081548092919061029a90610a4d565b9190505550807ffff3c900d938d21d0990d786e819f29b8d05c1ef587b462b939609625b684b1660405160405180910390a250565b60035481565b60016020528060005260406000206000915090508060000154908060010180546102fe90610a1b565b80601f016020809104026020016040519081016040528092919081815260200182805461032a90610a1b565b80156103775780601f1061034c57610100808354040283529160200191610377565b820191906000526020600020905b81548152906001019060200180831161035a57829003601f168201915b5050505050908060020154905083565b60008054906101000a900473ffffffffffffffffffffffffffffffffffffffff1673ffffffffffffffffffffffffffffffffffffffff163373ffffffffffffffffffffffffffffffffffffffff1614610415576040517f08c379a000000000000000000000000000000000000000000000000000000000815260040161040c9061085b565b60405180910390fd5b6003600081548092919061042890610a4d565b9190505550604051806060016040528060035481526020018281526020016000815250600160006003548152602001908152602001600020600082015181600001556020820151816001019080519060200190610486929190610515565b50604082015181600201559050506003547f4e533c53f778a27389df73e6c2093f620b89f32beda6edc0a994be6ab49e7cce826040516104c69190610839565b60405180910390a250565b60008054906101000a900473ffffffffffffffffffffffffffffffffffffffff1681565b60026020528060005260406000206000915054906101000a900460ff1681565b82805461052190610a1b565b90600052602060002090601f016020900481019282610543576000855561058a565b82601f1061055c57805160ff191683800117855561058a565b8280016001018555821561058a579182015b8281111561058957825182559160200191906001019061056e565b5b509050610597919061059b565b5090565b5b808211156105b457600081600090555060010161059c565b5090565b60006105cb6105c684610945565b610914565b9050828152602081018484840111156105e357600080fd5b6105ee8482856109d9565b509392505050565b60008135905061060581610b34565b92915050565b600082601f83011261061c57600080fd5b813561062c8482602086016105b8565b91505092915050565b60008135905061064481610b4b565b92915050565b60006020828403121561065c57600080fd5b600061066a848285016105f6565b91505092915050565b60006020828403121561068557600080fd5b600082013567ffffffffffffffff81111561069f57600080fd5b6106ab8482850161060b565b91505092915050565b6000602082840312156106c657600080fd5b60006106d484828501610635565b91505092915050565b6106e681610991565b82525050565b6106f5816109a3565b82525050565b600061070682610975565b6107108185610980565b93506107208185602086016109e8565b61072981610b23565b840191505092915050565b6000610741601e83610980565b91507f4f6e6c79206f776e65722063616e206164642063616e646964617465732e00006000830152602082019050919050565b6000610781600e83610980565b91507f416c726561647920766f7465642e0000000000000000000000000000000000006000830152602082019050919050565b60006107c1601183610980565b91507f496e76616c69642063616e6469646174650000000000000000000000000000006000830152602082019050919050565b6107fd816109cf565b82525050565b600060208201905061081860008301846106dd565b92915050565b600060208201905061083360008301846106ec565b92915050565b6000602082019050818103600083015261085381846106fb565b905092915050565b6000602082019050818103600083015261087481610734565b9050919050565b6000602082019050818103600083015261089481610774565b9050919050565b600060208201905081810360008301526108b4816107b4565b9050919050565b60006020820190506108d060008301846107f4565b92915050565b60006060820190506108eb60008301866107f4565b81810360208301526108fd81856106fb565b905061090c60408301846107f4565b949350505050565b6000604051905081810181811067ffffffffffffffff8211171561093b5761093a610af4565b5b8060405250919050565b600067ffffffffffffffff8211156109605761095f610af4565b5b601f19601f8301169050602081019050919050565b600081519050919050565b600082825260208201905092915050565b600061099c826109af565b9050919050565b60008115159050919050565b600073ffffffffffffffffffffffffffffffffffffffff82169050919050565b6000819050919050565b82818337600083830152505050565b60005b83811015610a065780820151818401526020810190506109eb565b83811115610a15576000848401525b50505050565b60006002820490506001821680610a3357607f821691505b60208210811415610a4757610a46610ac5565b5b50919050565b6000610a58826109cf565b91507fffffffffffffffffffffffffffffffffffffffffffffffffffffffffffffffff821415610a8b57610a8a610a96565b5b600182019050919050565b7f4e487b7100000000000000000000000000000000000000000000000000000000600052601160045260246000fd5b7f4e487b7100000000000000000000000000000000000000000000000000000000600052602260045260246000fd5b7f4e487b7100000000000000000000000000000000000000000000000000000000600052604160045260246000fd5b6000601f19601f8301169050919050565b610b3d81610991565b8114610b4857600080fd5b50565b610b54816109cf565b8114610b5f57600080fd5b5056fea264697066735822122070d611045a3083574eca99a5a1ea7f34b8df3170dd4378fd533bd6cf4750575464736f6c63430008000033",
  "immutableReferences": {},
  "source": "// SPDX-License-Identifier: MIT\npragma solidity ^0.8.0;\n\ncontract Voting {\n    address public owner;\n\n    struct Candidate {\n        uint id;\n        string name;\n        uint voteCount;\n    }\n\n    mapping(uint => Candidate) public candidates;\n    mapping(address => bool) public voters;\n    uint public candidatesCount;\n\n    event votedEvent(uint indexed candidateId);\n    event candidateAdded(uint indexed candidateId, string name);\n\n    modifier onlyOwner() {\n        require(msg.sender == owner, \"Only owner can add candidates.\");\n        _;\n    }\n\n    constructor() {\n        owner = msg.sender;\n        addCandidate(\"Rama\");\n        addCandidate(\"Nick\");\n        addCandidate(\"Jose\");\n    }\n\n    function addCandidate(string memory _name) public onlyOwner {\n        candidatesCount++;\n        candidates[candidatesCount] = Candidate(candidatesCount, _name, 0);\n        emit candidateAdded(candidatesCount, _name);\n    }\n\n    function vote(uint _candidateId) public {\n        require(!voters[msg.sender], \"Already voted.\");\n        require(_candidateId > 0 && _candidateId <= candidatesCount, \"Invalid candidate\");\n\n        voters[msg.sender] = true;\n        candidates[_candidateId].voteCount++;\n\n        emit votedEvent(_candidateId);\n    }\n}\n",
  "sourcePath": "/home/renu/Documents/Projects/voting-dapp/contracts/Voting.sol",
  "compiler": {
    "name": "solc",
    "version": "0.8.0+commit.c7dfd78e.Emscripten.clang"
  },
  "schemaVersion": "3.4.16",
  "updatedAt": "2025-05-26T09:33:14.457Z",
  "networkType": "ethereum",
  "devdoc": {
    "kind": "dev",
    "methods": {},
    "version": 1
  },
  "userdoc": {
    "kind": "user",
    "methods": {},
    "version": 1
  }
}